{
  "_format": "hh-sol-artifact-1",
  "contractName": "Hons",
  "sourceName": "contracts/HonsToken.sol",
  "abi": [
    {
      "inputs": [],
      "stateMutability": "nonpayable",
      "type": "constructor"
    },
    {
      "inputs": [],
      "name": "ECDSAInvalidSignature",
      "type": "error"
    },
    {
      "inputs": [
        {
          "internalType": "uint256",
          "name": "length",
          "type": "uint256"
        }
      ],
      "name": "ECDSAInvalidSignatureLength",
      "type": "error"
    },
    {
      "inputs": [
        {
          "internalType": "bytes32",
          "name": "s",
          "type": "bytes32"
        }
      ],
      "name": "ECDSAInvalidSignatureS",
      "type": "error"
    },
    {
      "inputs": [
        {
          "internalType": "address",
          "name": "spender",
          "type": "address"
        },
        {
          "internalType": "uint256",
          "name": "allowance",
          "type": "uint256"
        },
        {
          "internalType": "uint256",
          "name": "needed",
          "type": "uint256"
        }
      ],
      "name": "ERC20InsufficientAllowance",
      "type": "error"
    },
    {
      "inputs": [
        {
          "internalType": "address",
          "name": "sender",
          "type": "address"
        },
        {
          "internalType": "uint256",
          "name": "balance",
          "type": "uint256"
        },
        {
          "internalType": "uint256",
          "name": "needed",
          "type": "uint256"
        }
      ],
      "name": "ERC20InsufficientBalance",
      "type": "error"
    },
    {
      "inputs": [
        {
          "internalType": "address",
          "name": "approver",
          "type": "address"
        }
      ],
      "name": "ERC20InvalidApprover",
      "type": "error"
    },
    {
      "inputs": [
        {
          "internalType": "address",
          "name": "receiver",
          "type": "address"
        }
      ],
      "name": "ERC20InvalidReceiver",
      "type": "error"
    },
    {
      "inputs": [
        {
          "internalType": "address",
          "name": "sender",
          "type": "address"
        }
      ],
      "name": "ERC20InvalidSender",
      "type": "error"
    },
    {
      "inputs": [
        {
          "internalType": "address",
          "name": "spender",
          "type": "address"
        }
      ],
      "name": "ERC20InvalidSpender",
      "type": "error"
    },
    {
      "inputs": [
        {
          "internalType": "uint256",
          "name": "deadline",
          "type": "uint256"
        }
      ],
      "name": "ERC2612ExpiredSignature",
      "type": "error"
    },
    {
      "inputs": [
        {
          "internalType": "address",
          "name": "signer",
          "type": "address"
        },
        {
          "internalType": "address",
          "name": "owner",
          "type": "address"
        }
      ],
      "name": "ERC2612InvalidSigner",
      "type": "error"
    },
    {
      "inputs": [
        {
          "internalType": "address",
          "name": "account",
          "type": "address"
        },
        {
          "internalType": "uint256",
          "name": "currentNonce",
          "type": "uint256"
        }
      ],
      "name": "InvalidAccountNonce",
      "type": "error"
    },
    {
      "inputs": [],
      "name": "InvalidShortString",
      "type": "error"
    },
    {
      "inputs": [
        {
          "internalType": "address",
          "name": "owner",
          "type": "address"
        }
      ],
      "name": "OwnableInvalidOwner",
      "type": "error"
    },
    {
      "inputs": [
        {
          "internalType": "address",
          "name": "account",
          "type": "address"
        }
      ],
      "name": "OwnableUnauthorizedAccount",
      "type": "error"
    },
    {
      "inputs": [
        {
          "internalType": "string",
          "name": "str",
          "type": "string"
        }
      ],
      "name": "StringTooLong",
      "type": "error"
    },
    {
      "anonymous": false,
      "inputs": [
        {
          "indexed": true,
          "internalType": "address",
          "name": "owner",
          "type": "address"
        },
        {
          "indexed": true,
          "internalType": "address",
          "name": "spender",
          "type": "address"
        },
        {
          "indexed": false,
          "internalType": "uint256",
          "name": "value",
          "type": "uint256"
        }
      ],
      "name": "Approval",
      "type": "event"
    },
    {
      "anonymous": false,
      "inputs": [],
      "name": "EIP712DomainChanged",
      "type": "event"
    },
    {
      "anonymous": false,
      "inputs": [
        {
          "indexed": false,
          "internalType": "bool",
          "name": "faucetPaused",
          "type": "bool"
        }
      ],
      "name": "FaucetStatusChange",
      "type": "event"
    },
    {
      "anonymous": false,
      "inputs": [
        {
          "indexed": true,
          "internalType": "address",
          "name": "sender",
          "type": "address"
        },
        {
          "indexed": false,
          "internalType": "uint256",
          "name": "amount",
          "type": "uint256"
        },
        {
          "indexed": false,
          "internalType": "uint256",
          "name": "timeStamp",
          "type": "uint256"
        }
      ],
      "name": "Mint",
      "type": "event"
    },
    {
      "anonymous": false,
      "inputs": [
        {
          "indexed": true,
          "internalType": "address",
          "name": "previousOwner",
          "type": "address"
        },
        {
          "indexed": true,
          "internalType": "address",
          "name": "newOwner",
          "type": "address"
        }
      ],
      "name": "OwnershipTransferred",
      "type": "event"
    },
    {
      "anonymous": false,
      "inputs": [
        {
          "indexed": true,
          "internalType": "address",
          "name": "sender",
          "type": "address"
        },
        {
          "indexed": false,
          "internalType": "uint256",
          "name": "amount",
          "type": "uint256"
        },
        {
          "indexed": false,
          "internalType": "uint256",
          "name": "timeStamp",
          "type": "uint256"
        }
      ],
      "name": "RaceRewardMint",
      "type": "event"
    },
    {
      "anonymous": false,
      "inputs": [
        {
          "indexed": true,
          "internalType": "address",
          "name": "sender",
          "type": "address"
        },
        {
          "indexed": false,
          "internalType": "uint256",
          "name": "amount",
          "type": "uint256"
        },
        {
          "indexed": false,
          "internalType": "uint256",
          "name": "timeStamp",
          "type": "uint256"
        }
      ],
      "name": "TokenBurned",
      "type": "event"
    },
    {
      "anonymous": false,
      "inputs": [
        {
          "indexed": true,
          "internalType": "address",
          "name": "from",
          "type": "address"
        },
        {
          "indexed": true,
          "internalType": "address",
          "name": "to",
          "type": "address"
        },
        {
          "indexed": false,
          "internalType": "uint256",
          "name": "value",
          "type": "uint256"
        }
      ],
      "name": "Transfer",
      "type": "event"
    },
    {
      "inputs": [],
      "name": "COOLDOWN",
      "outputs": [
        {
          "internalType": "uint256",
          "name": "",
          "type": "uint256"
        }
      ],
      "stateMutability": "view",
      "type": "function"
    },
    {
      "inputs": [],
      "name": "DOMAIN_SEPARATOR",
      "outputs": [
        {
          "internalType": "bytes32",
          "name": "",
          "type": "bytes32"
        }
      ],
      "stateMutability": "view",
      "type": "function"
    },
    {
      "inputs": [],
      "name": "MAX_AMOUNT_PER_USER",
      "outputs": [
        {
          "internalType": "uint256",
          "name": "",
          "type": "uint256"
        }
      ],
      "stateMutability": "view",
      "type": "function"
    },
    {
      "inputs": [],
      "name": "RACE_COOLDOWN",
      "outputs": [
        {
          "internalType": "uint256",
          "name": "",
          "type": "uint256"
        }
      ],
      "stateMutability": "view",
      "type": "function"
    },
    {
      "inputs": [],
      "name": "TOTAL_SUPPLY_CAP",
      "outputs": [
        {
          "internalType": "uint256",
          "name": "",
          "type": "uint256"
        }
      ],
      "stateMutability": "view",
      "type": "function"
    },
    {
      "inputs": [
        {
          "internalType": "address",
          "name": "to",
          "type": "address"
        },
        {
          "internalType": "uint256",
          "name": "amount",
          "type": "uint256"
        }
      ],
      "name": "__test_mint",
      "outputs": [],
      "stateMutability": "nonpayable",
      "type": "function"
    },
    {
      "inputs": [
        {
          "internalType": "address",
          "name": "userAddress",
          "type": "address"
        },
        {
          "internalType": "uint256",
          "name": "amount",
          "type": "uint256"
        }
      ],
      "name": "__test_setUserAmount",
      "outputs": [],
      "stateMutability": "nonpayable",
      "type": "function"
    },
    {
      "inputs": [
        {
          "internalType": "address",
          "name": "owner",
          "type": "address"
        },
        {
          "internalType": "address",
          "name": "spender",
          "type": "address"
        }
      ],
      "name": "allowance",
      "outputs": [
        {
          "internalType": "uint256",
          "name": "",
          "type": "uint256"
        }
      ],
      "stateMutability": "view",
      "type": "function"
    },
    {
      "inputs": [
        {
          "internalType": "address",
          "name": "spender",
          "type": "address"
        },
        {
          "internalType": "uint256",
          "name": "value",
          "type": "uint256"
        }
      ],
      "name": "approve",
      "outputs": [
        {
          "internalType": "bool",
          "name": "",
          "type": "bool"
        }
      ],
      "stateMutability": "nonpayable",
      "type": "function"
    },
    {
      "inputs": [
        {
          "internalType": "address",
          "name": "account",
          "type": "address"
        }
      ],
      "name": "balanceOf",
      "outputs": [
        {
          "internalType": "uint256",
          "name": "",
          "type": "uint256"
        }
      ],
      "stateMutability": "view",
      "type": "function"
    },
    {
      "inputs": [
        {
          "internalType": "uint256",
          "name": "amount",
          "type": "uint256"
        }
      ],
      "name": "burnToken",
      "outputs": [],
      "stateMutability": "nonpayable",
      "type": "function"
    },
    {
      "inputs": [],
      "name": "decimals",
      "outputs": [
        {
          "internalType": "uint8",
          "name": "",
          "type": "uint8"
        }
      ],
      "stateMutability": "view",
      "type": "function"
    },
    {
      "inputs": [],
      "name": "eip712Domain",
      "outputs": [
        {
          "internalType": "bytes1",
          "name": "fields",
          "type": "bytes1"
        },
        {
          "internalType": "string",
          "name": "name",
          "type": "string"
        },
        {
          "internalType": "string",
          "name": "version",
          "type": "string"
        },
        {
          "internalType": "uint256",
          "name": "chainId",
          "type": "uint256"
        },
        {
          "internalType": "address",
          "name": "verifyingContract",
          "type": "address"
        },
        {
          "internalType": "bytes32",
          "name": "salt",
          "type": "bytes32"
        },
        {
          "internalType": "uint256[]",
          "name": "extensions",
          "type": "uint256[]"
        }
      ],
      "stateMutability": "view",
      "type": "function"
    },
    {
      "inputs": [],
      "name": "faucetMint",
      "outputs": [],
      "stateMutability": "nonpayable",
      "type": "function"
    },
    {
      "inputs": [],
      "name": "faucetPaused",
      "outputs": [
        {
          "internalType": "bool",
          "name": "",
          "type": "bool"
        }
      ],
      "stateMutability": "view",
      "type": "function"
    },
    {
      "inputs": [],
      "name": "getUserInfo",
      "outputs": [
        {
          "components": [
            {
              "internalType": "uint256",
              "name": "amount",
              "type": "uint256"
            },
            {
              "internalType": "uint256",
              "name": "lastMintTime",
              "type": "uint256"
            },
            {
              "internalType": "enum Hons.RacePosition",
              "name": "lastRoundPosition",
              "type": "uint8"
            },
            {
              "internalType": "uint256",
              "name": "lastRaceTime",
              "type": "uint256"
            }
          ],
          "internalType": "struct Hons.User",
          "name": "",
          "type": "tuple"
        }
      ],
      "stateMutability": "view",
      "type": "function"
    },
    {
      "inputs": [],
      "name": "name",
      "outputs": [
        {
          "internalType": "string",
          "name": "",
          "type": "string"
        }
      ],
      "stateMutability": "view",
      "type": "function"
    },
    {
      "inputs": [
        {
          "internalType": "address",
          "name": "owner",
          "type": "address"
        }
      ],
      "name": "nonces",
      "outputs": [
        {
          "internalType": "uint256",
          "name": "",
          "type": "uint256"
        }
      ],
      "stateMutability": "view",
      "type": "function"
    },
    {
      "inputs": [],
      "name": "owner",
      "outputs": [
        {
          "internalType": "address",
          "name": "",
          "type": "address"
        }
      ],
      "stateMutability": "view",
      "type": "function"
    },
    {
      "inputs": [],
      "name": "pauseFaucet",
      "outputs": [],
      "stateMutability": "nonpayable",
      "type": "function"
    },
    {
      "inputs": [
        {
          "internalType": "address",
          "name": "owner",
          "type": "address"
        },
        {
          "internalType": "address",
          "name": "spender",
          "type": "address"
        },
        {
          "internalType": "uint256",
          "name": "value",
          "type": "uint256"
        },
        {
          "internalType": "uint256",
          "name": "deadline",
          "type": "uint256"
        },
        {
          "internalType": "uint8",
          "name": "v",
          "type": "uint8"
        },
        {
          "internalType": "bytes32",
          "name": "r",
          "type": "bytes32"
        },
        {
          "internalType": "bytes32",
          "name": "s",
          "type": "bytes32"
        }
      ],
      "name": "permit",
      "outputs": [],
      "stateMutability": "nonpayable",
      "type": "function"
    },
    {
      "inputs": [
        {
          "internalType": "enum Hons.RacePosition",
          "name": "_position",
          "type": "uint8"
        }
      ],
      "name": "raceReward",
      "outputs": [],
      "stateMutability": "nonpayable",
      "type": "function"
    },
    {
      "inputs": [],
      "name": "renounceOwnership",
      "outputs": [],
      "stateMutability": "nonpayable",
      "type": "function"
    },
    {
      "inputs": [
        {
          "internalType": "uint256",
          "name": "cooldown",
          "type": "uint256"
        }
      ],
      "name": "setCooldown",
      "outputs": [],
      "stateMutability": "nonpayable",
      "type": "function"
    },
    {
      "inputs": [
        {
          "internalType": "uint256",
          "name": "amount",
          "type": "uint256"
        }
      ],
      "name": "setMaxAmountPerUser",
      "outputs": [],
      "stateMutability": "nonpayable",
      "type": "function"
    },
    {
      "inputs": [
        {
          "internalType": "uint256",
          "name": "raceCooldown",
          "type": "uint256"
        }
      ],
      "name": "setRaceCooldown",
      "outputs": [],
      "stateMutability": "nonpayable",
      "type": "function"
    },
    {
      "inputs": [],
      "name": "symbol",
      "outputs": [
        {
          "internalType": "string",
          "name": "",
          "type": "string"
        }
      ],
      "stateMutability": "view",
      "type": "function"
    },
    {
      "inputs": [],
      "name": "totalSupply",
      "outputs": [
        {
          "internalType": "uint256",
          "name": "",
          "type": "uint256"
        }
      ],
      "stateMutability": "view",
      "type": "function"
    },
    {
      "inputs": [
        {
          "internalType": "address",
          "name": "to",
          "type": "address"
        },
        {
          "internalType": "uint256",
          "name": "value",
          "type": "uint256"
        }
      ],
      "name": "transfer",
      "outputs": [
        {
          "internalType": "bool",
          "name": "",
          "type": "bool"
        }
      ],
      "stateMutability": "nonpayable",
      "type": "function"
    },
    {
      "inputs": [
        {
          "internalType": "address",
          "name": "from",
          "type": "address"
        },
        {
          "internalType": "address",
          "name": "to",
          "type": "address"
        },
        {
          "internalType": "uint256",
          "name": "value",
          "type": "uint256"
        }
      ],
      "name": "transferFrom",
      "outputs": [
        {
          "internalType": "bool",
          "name": "",
          "type": "bool"
        }
      ],
      "stateMutability": "nonpayable",
      "type": "function"
    },
    {
      "inputs": [
        {
          "internalType": "address",
          "name": "newOwner",
          "type": "address"
        }
      ],
      "name": "transferOwnership",
      "outputs": [],
      "stateMutability": "nonpayable",
      "type": "function"
    },
    {
      "inputs": [],
      "name": "unPauseFaucet",
      "outputs": [],
      "stateMutability": "nonpayable",
      "type": "function"
    },
    {
      "inputs": [
        {
          "internalType": "address",
          "name": "",
          "type": "address"
        }
      ],
      "name": "userMapping",
      "outputs": [
        {
          "internalType": "uint256",
          "name": "amount",
          "type": "uint256"
        },
        {
          "internalType": "uint256",
          "name": "lastMintTime",
          "type": "uint256"
        },
        {
          "internalType": "enum Hons.RacePosition",
          "name": "lastRoundPosition",
          "type": "uint8"
        },
        {
          "internalType": "uint256",
          "name": "lastRaceTime",
          "type": "uint256"
        }
      ],
      "stateMutability": "view",
      "type": "function"
    }
  ],
  "bytecode": "0x61018060405262015180600955611c20600a556100206102c260201b60201c565b600a61002c9190610627565b614e206100399190610672565b600b556000600c60006101000a81548160ff02191690831515021790555034801561006357600080fd5b506040518060400160405280600481526020017f486f6e7300000000000000000000000000000000000000000000000000000000815250806040518060400160405280600181526020017f3100000000000000000000000000000000000000000000000000000000000000815250336040518060400160405280600481526020017f486f6e73000000000000000000000000000000000000000000000000000000008152506040518060400160405280600481526020017f4d52414a00000000000000000000000000000000000000000000000000000000815250816003908161014d91906108fa565b50806004908161015d91906108fa565b505050600073ffffffffffffffffffffffffffffffffffffffff168173ffffffffffffffffffffffffffffffffffffffff16036101d25760006040517f1e4fbdf70000000000000000000000000000000000000000000000000000000081526004016101c99190610a0d565b60405180910390fd5b6101e1816102cb60201b60201c565b506101f660068361039160201b90919060201c565b610120818152505061021260078261039160201b90919060201c565b6101408181525050818051906020012060e08181525050808051906020012061010081815250504660a0818152505061024f6103e160201b60201c565b608081815250503073ffffffffffffffffffffffffffffffffffffffff1660c08173ffffffffffffffffffffffffffffffffffffffff168152505050505061029b6102c260201b60201c565b600a6102a79190610627565b621e84806102b59190610672565b6101608181525050610be1565b60006012905090565b6000600560009054906101000a900473ffffffffffffffffffffffffffffffffffffffff16905081600560006101000a81548173ffffffffffffffffffffffffffffffffffffffff021916908373ffffffffffffffffffffffffffffffffffffffff1602179055508173ffffffffffffffffffffffffffffffffffffffff168173ffffffffffffffffffffffffffffffffffffffff167f8be0079c531659141344cd1fd0a4f28419497f9722a3daafe3b4186f6b6457e060405160405180910390a35050565b60006020835110156103b3576103ac8361043c60201b60201c565b90506103db565b826103c3836104a460201b60201c565b60000190816103d291906108fa565b5060ff60001b90505b92915050565b60007f8b73c3c69bb8fe3d512ecc4cf759cc79239f7b179b0ffacaa9a75d522b39400f60e051610100514630604051602001610421959493929190610a50565b60405160208183030381529060405280519060200120905090565b600080829050601f8151111561048957826040517f305a27a90000000000000000000000000000000000000000000000000000000081526004016104809190610b28565b60405180910390fd5b80518161049590610b7a565b60001c1760001b915050919050565b6000819050919050565b7f4e487b7100000000000000000000000000000000000000000000000000000000600052601160045260246000fd5b60008160011c9050919050565b6000808291508390505b6001851115610534578086048111156105105761050f6104ae565b5b600185161561051f5780820291505b808102905061052d856104dd565b94506104f4565b94509492505050565b60008261054d5760019050610609565b8161055b5760009050610609565b8160018114610571576002811461057b576105aa565b6001915050610609565b60ff84111561058d5761058c6104ae565b5b8360020a9150848211156105a4576105a36104ae565b5b50610609565b5060208310610133831016604e8410600b84101617156105df5782820a9050838111156105da576105d96104ae565b5b610609565b6105ec84848460016104ea565b92509050818404811115610603576106026104ae565b5b81810290505b9392505050565b6000819050919050565b600060ff82169050919050565b600061063282610610565b915061063d8361061a565b925061066a7fffffffffffffffffffffffffffffffffffffffffffffffffffffffffffffffff848461053d565b905092915050565b600061067d82610610565b915061068883610610565b925082820261069681610610565b915082820484148315176106ad576106ac6104ae565b5b5092915050565b600081519050919050565b7f4e487b7100000000000000000000000000000000000000000000000000000000600052604160045260246000fd5b7f4e487b7100000000000000000000000000000000000000000000000000000000600052602260045260246000fd5b6000600282049050600182168061073557607f821691505b602082108103610748576107476106ee565b5b50919050565b60008190508160005260206000209050919050565b60006020601f8301049050919050565b600082821b905092915050565b6000600883026107b07fffffffffffffffffffffffffffffffffffffffffffffffffffffffffffffffff82610773565b6107ba8683610773565b95508019841693508086168417925050509392505050565b6000819050919050565b60006107f76107f26107ed84610610565b6107d2565b610610565b9050919050565b6000819050919050565b610811836107dc565b61082561081d826107fe565b848454610780565b825550505050565b600090565b61083a61082d565b610845818484610808565b505050565b5b818110156108695761085e600082610832565b60018101905061084b565b5050565b601f8211156108ae5761087f8161074e565b61088884610763565b81016020851015610897578190505b6108ab6108a385610763565b83018261084a565b50505b505050565b600082821c905092915050565b60006108d1600019846008026108b3565b1980831691505092915050565b60006108ea83836108c0565b9150826002028217905092915050565b610903826106b4565b67ffffffffffffffff81111561091c5761091b6106bf565b5b610926825461071d565b61093182828561086d565b600060209050601f8311600181146109645760008415610952578287015190505b61095c85826108de565b8655506109c4565b601f1984166109728661074e565b60005b8281101561099a57848901518255600182019150602085019450602081019050610975565b868310156109b757848901516109b3601f8916826108c0565b8355505b6001600288020188555050505b505050505050565b600073ffffffffffffffffffffffffffffffffffffffff82169050919050565b60006109f7826109cc565b9050919050565b610a07816109ec565b82525050565b6000602082019050610a2260008301846109fe565b92915050565b6000819050919050565b610a3b81610a28565b82525050565b610a4a81610610565b82525050565b600060a082019050610a656000830188610a32565b610a726020830187610a32565b610a7f6040830186610a32565b610a8c6060830185610a41565b610a9960808301846109fe565b9695505050505050565b600082825260208201905092915050565b60005b83811015610ad2578082015181840152602081019050610ab7565b60008484015250505050565b6000601f19601f8301169050919050565b6000610afa826106b4565b610b048185610aa3565b9350610b14818560208601610ab4565b610b1d81610ade565b840191505092915050565b60006020820190508181036000830152610b428184610aef565b905092915050565b600081519050919050565b6000819050602082019050919050565b6000610b718251610a28565b80915050919050565b6000610b8582610b4a565b82610b8f84610b55565b9050610b9a81610b65565b92506020821015610bda57610bd57fffffffffffffffffffffffffffffffffffffffffffffffffffffffffffffffff83602003600802610773565b831692505b5050919050565b60805160a05160c05160e051610100516101205161014051610160516134d2610c5b6000396000818161089201528181610b5501528181610d27015261130201526000611af901526000611abe0152600061200e01526000611fed01526000611871015260006118c7015260006118f001526134d26000f3fe608060405234801561001057600080fd5b50600436106101fb5760003560e01c806371cce4731161011a578063a07e9aa0116100ad578063a93a95c81161007c578063a93a95c814610575578063cac3330d1461057f578063d505accf1461059b578063dd62ed3e146105b7578063f2fde38b146105e7576101fb565b8063a07e9aa0146104ef578063a2724a4d1461050b578063a2a0688614610529578063a9059cbb14610545576101fb565b8063812acd61116100e9578063812acd611461047357806384b0196e1461048f5780638da5cb5b146104b357806395d89b41146104d1576101fb565b806371cce473146103eb5780637858dcd6146104095780637b47ec1a146104275780637ecebe0014610443576101fb565b80633644e515116101925780634fc3f41a116101615780634fc3f41a146103775780635d8d15851461039357806370a08231146103b1578063715018a6146103e1576101fb565b80633644e5151461030157806343a090c01461031f57806345c6e5251461033b5780634893135214610359576101fb565b806313eda8fc116101ce57806313eda8fc1461028b57806318160ddd1461029557806323b872dd146102b3578063313ce567146102e3576101fb565b8063057d7a621461020057806306fdde031461020a578063095ea7b314610228578063118b953514610258575b600080fd5b610208610603565b005b61021261066e565b60405161021f9190612535565b60405180910390f35b610242600480360381019061023d91906125f0565b610700565b60405161024f919061264b565b60405180910390f35b610272600480360381019061026d9190612666565b610723565b6040516102829493929190612719565b60405180910390f35b610293610760565b005b61029d6109db565b6040516102aa919061275e565b60405180910390f35b6102cd60048036038101906102c89190612779565b6109e5565b6040516102da919061264b565b60405180910390f35b6102eb610a14565b6040516102f891906127e8565b60405180910390f35b610309610a1d565b604051610316919061281c565b60405180910390f35b6103396004803603810190610334919061285c565b610a2c565b005b610343610d1f565b604051610350919061275e565b60405180910390f35b610361610d25565b60405161036e919061275e565b60405180910390f35b610391600480360381019061038c9190612889565b610d49565b005b61039b610d5b565b6040516103a89190612929565b60405180910390f35b6103cb60048036038101906103c69190612666565b610e0b565b6040516103d8919061275e565b60405180910390f35b6103e9610e53565b005b6103f3610e67565b604051610400919061275e565b60405180910390f35b610411610e6d565b60405161041e919061264b565b60405180910390f35b610441600480360381019061043c9190612889565b610e80565b005b61045d60048036038101906104589190612666565b610f89565b60405161046a919061275e565b60405180910390f35b61048d600480360381019061048891906125f0565b610f9b565b005b610497611092565b6040516104aa9796959493929190612a3d565b60405180910390f35b6104bb61113c565b6040516104c89190612ac1565b60405180910390f35b6104d9611166565b6040516104e69190612535565b60405180910390f35b61050960048036038101906105049190612889565b6111f8565b005b61051361120a565b604051610520919061275e565b60405180910390f35b610543600480360381019061053e91906125f0565b611210565b005b61055f600480360381019061055a91906125f0565b61126a565b60405161056c919061264b565b60405180910390f35b61057d61128d565b005b61059960048036038101906105949190612889565b6112f8565b005b6105b560048036038101906105b09190612b34565b61136c565b005b6105d160048036038101906105cc9190612bd6565b6114b4565b6040516105de919061275e565b60405180910390f35b61060160048036038101906105fc9190612666565b61153b565b005b61060b6115c1565b6001600c60006101000a81548160ff0219169083151502179055507f7615f958a21c71fb65adef63148902cf8b4b9dd7b5a44b549b515b0702dcdca5600c60009054906101000a900460ff16604051610664919061264b565b60405180910390a1565b60606003805461067d90612c45565b80601f01602080910402602001604051908101604052809291908181526020018280546106a990612c45565b80156106f65780601f106106cb576101008083540402835291602001916106f6565b820191906000526020600020905b8154815290600101906020018083116106d957829003601f168201915b5050505050905090565b60008061070b611648565b9050610718818585611650565b600191505092915050565b600d6020528060005260406000206000915090508060000154908060010154908060020160009054906101000a900460ff16908060030154905084565b600c60009054906101000a900460ff16156107b0576040517f08c379a00000000000000000000000000000000000000000000000000000000081526004016107a790612cc2565b60405180910390fd5b6000600d60003373ffffffffffffffffffffffffffffffffffffffff1673ffffffffffffffffffffffffffffffffffffffff16815260200190815260200160002090506000600a8260000154600b546108099190612d11565b11610825578160000154600b546108209190612d11565b610828565b600a5b90506000610834610a14565b600a6108409190612e78565b8261084b9190612ec3565b905060008211610890576040517f08c379a000000000000000000000000000000000000000000000000000000000815260040161088790612f77565b60405180910390fd5b7f0000000000000000000000000000000000000000000000000000000000000000816108ba6109db565b6108c49190612f97565b1115610905576040517f08c379a00000000000000000000000000000000000000000000000000000000081526004016108fc9061303d565b60405180910390fd5b60095483600101546109179190612f97565b4211610958576040517f08c379a000000000000000000000000000000000000000000000000000000000815260040161094f906130cf565b60405180910390fd5b6109623382611662565b808360000160008282546109769190612f97565b925050819055504283600101819055503373ffffffffffffffffffffffffffffffffffffffff167f4c209b5fc8ad50758f13e2e1088ba56a560dff690a1c6fef26394f4c03821c4f82426040516109ce9291906130ef565b60405180910390a2505050565b6000600254905090565b6000806109f0611648565b90506109fd8582856116e4565b610a08858585611779565b60019150509392505050565b60006012905090565b6000610a2761186d565b905090565b600c60009054906101000a900460ff1615610a7c576040517f08c379a0000000000000000000000000000000000000000000000000000000008152600401610a7390612cc2565b60405180910390fd5b600080600d60003373ffffffffffffffffffffffffffffffffffffffff1673ffffffffffffffffffffffffffffffffffffffff168152602001908152602001600020905060006002811115610ad457610ad36126a2565b5b836002811115610ae757610ae66126a2565b5b03610af55760149150610b30565b60016002811115610b0957610b086126a2565b5b836002811115610b1c57610b1b6126a2565b5b03610b2a57600a9150610b2f565b600591505b5b6000610b3a610a14565b600a610b469190612e78565b83610b519190612ec3565b90507f000000000000000000000000000000000000000000000000000000000000000081610b7d6109db565b610b879190612f97565b1115610bc8576040517f08c379a0000000000000000000000000000000000000000000000000000000008152600401610bbf9061303d565b60405180910390fd5b600b54818360000154610bdb9190612f97565b1115610c1c576040517f08c379a0000000000000000000000000000000000000000000000000000000008152600401610c139061318a565b60405180910390fd5b600a548260030154610c2e9190612f97565b4211610c6f576040517f08c379a0000000000000000000000000000000000000000000000000000000008152600401610c66906130cf565b60405180910390fd5b610c793382611662565b80826000016000828254610c8d9190612f97565b92505081905550428260030181905550838260020160006101000a81548160ff02191690836002811115610cc457610cc36126a2565b5b02179055503373ffffffffffffffffffffffffffffffffffffffff167f7371892c0964dd129d7be5b4e54ad7aa453d44b2a62896fd8c06abe9d96a4c3f8242604051610d119291906130ef565b60405180910390a250505050565b600a5481565b7f000000000000000000000000000000000000000000000000000000000000000081565b610d516115c1565b8060098190555050565b610d6361246b565b600d60003373ffffffffffffffffffffffffffffffffffffffff1673ffffffffffffffffffffffffffffffffffffffff16815260200190815260200160002060405180608001604052908160008201548152602001600182015481526020016002820160009054906101000a900460ff166002811115610de657610de56126a2565b5b6002811115610df857610df76126a2565b5b8152602001600382015481525050905090565b60008060008373ffffffffffffffffffffffffffffffffffffffff1673ffffffffffffffffffffffffffffffffffffffff168152602001908152602001600020549050919050565b610e5b6115c1565b610e656000611924565b565b600b5481565b600c60009054906101000a900460ff1681565b6000600d60003373ffffffffffffffffffffffffffffffffffffffff1673ffffffffffffffffffffffffffffffffffffffff168152602001908152602001600020905060008290508082600001541015610f0f576040517f08c379a0000000000000000000000000000000000000000000000000000000008152600401610f06906131f6565b60405180910390fd5b610f1933826119ea565b80826000016000828254610f2d9190612d11565b925050819055503373ffffffffffffffffffffffffffffffffffffffff167fde3ca466246b0da455138dbea78dacd91d3c40dc98d5846ff0193bf67c24b0e78242604051610f7c9291906130ef565b60405180910390a2505050565b6000610f9482611a6c565b9050919050565b610fa36115c1565b617a694614610fe7576040517f08c379a0000000000000000000000000000000000000000000000000000000008152600401610fde90613262565b60405180910390fd5b80600d60008473ffffffffffffffffffffffffffffffffffffffff1673ffffffffffffffffffffffffffffffffffffffff1681526020019081526020016000206000018190555060016009544261103e9190612d11565b6110489190612d11565b600d60008473ffffffffffffffffffffffffffffffffffffffff1673ffffffffffffffffffffffffffffffffffffffff168152602001908152602001600020600101819055505050565b6000606080600080600060606110a6611ab5565b6110ae611af0565b46306000801b600067ffffffffffffffff8111156110cf576110ce613282565b5b6040519080825280602002602001820160405280156110fd5781602001602082028036833780820191505090505b507f0f00000000000000000000000000000000000000000000000000000000000000959493929190965096509650965096509650965090919293949596565b6000600560009054906101000a900473ffffffffffffffffffffffffffffffffffffffff16905090565b60606004805461117590612c45565b80601f01602080910402602001604051908101604052809291908181526020018280546111a190612c45565b80156111ee5780601f106111c3576101008083540402835291602001916111ee565b820191906000526020600020905b8154815290600101906020018083116111d157829003601f168201915b5050505050905090565b6112006115c1565b80600a8190555050565b60095481565b6112186115c1565b617a69461461125c576040517f08c379a000000000000000000000000000000000000000000000000000000000815260040161125390613262565b60405180910390fd5b6112668282611662565b5050565b600080611275611648565b9050611282818585611779565b600191505092915050565b6112956115c1565b6000600c60006101000a81548160ff0219169083151502179055507f7615f958a21c71fb65adef63148902cf8b4b9dd7b5a44b549b515b0702dcdca5600c60009054906101000a900460ff166040516112ee919061264b565b60405180910390a1565b6113006115c1565b7f00000000000000000000000000000000000000000000000000000000000000008110611362576040517f08c379a000000000000000000000000000000000000000000000000000000000815260040161135990613323565b60405180910390fd5b80600b8190555050565b834211156113b157836040517f627913020000000000000000000000000000000000000000000000000000000081526004016113a8919061275e565b60405180910390fd5b60007f6e71edae12b1b97f4d1f60370fef10105fa2faae0126114a169c64845d6126c98888886113e08c611b2b565b896040516020016113f696959493929190613343565b604051602081830303815290604052805190602001209050600061141982611b82565b9050600061142982878787611b9c565b90508973ffffffffffffffffffffffffffffffffffffffff168173ffffffffffffffffffffffffffffffffffffffff161461149d57808a6040517f4b800e460000000000000000000000000000000000000000000000000000000081526004016114949291906133a4565b60405180910390fd5b6114a88a8a8a611650565b50505050505050505050565b6000600160008473ffffffffffffffffffffffffffffffffffffffff1673ffffffffffffffffffffffffffffffffffffffff16815260200190815260200160002060008373ffffffffffffffffffffffffffffffffffffffff1673ffffffffffffffffffffffffffffffffffffffff16815260200190815260200160002054905092915050565b6115436115c1565b600073ffffffffffffffffffffffffffffffffffffffff168173ffffffffffffffffffffffffffffffffffffffff16036115b55760006040517f1e4fbdf70000000000000000000000000000000000000000000000000000000081526004016115ac9190612ac1565b60405180910390fd5b6115be81611924565b50565b6115c9611648565b73ffffffffffffffffffffffffffffffffffffffff166115e761113c565b73ffffffffffffffffffffffffffffffffffffffff16146116465761160a611648565b6040517f118cdaa700000000000000000000000000000000000000000000000000000000815260040161163d9190612ac1565b60405180910390fd5b565b600033905090565b61165d8383836001611bcc565b505050565b600073ffffffffffffffffffffffffffffffffffffffff168273ffffffffffffffffffffffffffffffffffffffff16036116d45760006040517fec442f050000000000000000000000000000000000000000000000000000000081526004016116cb9190612ac1565b60405180910390fd5b6116e060008383611da3565b5050565b60006116f084846114b4565b90507fffffffffffffffffffffffffffffffffffffffffffffffffffffffffffffffff8110156117735781811015611763578281836040517ffb8f41b200000000000000000000000000000000000000000000000000000000815260040161175a939291906133cd565b60405180910390fd5b61177284848484036000611bcc565b5b50505050565b600073ffffffffffffffffffffffffffffffffffffffff168373ffffffffffffffffffffffffffffffffffffffff16036117eb5760006040517f96c6fd1e0000000000000000000000000000000000000000000000000000000081526004016117e29190612ac1565b60405180910390fd5b600073ffffffffffffffffffffffffffffffffffffffff168273ffffffffffffffffffffffffffffffffffffffff160361185d5760006040517fec442f050000000000000000000000000000000000000000000000000000000081526004016118549190612ac1565b60405180910390fd5b611868838383611da3565b505050565b60007f000000000000000000000000000000000000000000000000000000000000000073ffffffffffffffffffffffffffffffffffffffff163073ffffffffffffffffffffffffffffffffffffffff161480156118e957507f000000000000000000000000000000000000000000000000000000000000000046145b15611916577f00000000000000000000000000000000000000000000000000000000000000009050611921565b61191e611fc8565b90505b90565b6000600560009054906101000a900473ffffffffffffffffffffffffffffffffffffffff16905081600560006101000a81548173ffffffffffffffffffffffffffffffffffffffff021916908373ffffffffffffffffffffffffffffffffffffffff1602179055508173ffffffffffffffffffffffffffffffffffffffff168173ffffffffffffffffffffffffffffffffffffffff167f8be0079c531659141344cd1fd0a4f28419497f9722a3daafe3b4186f6b6457e060405160405180910390a35050565b600073ffffffffffffffffffffffffffffffffffffffff168273ffffffffffffffffffffffffffffffffffffffff1603611a5c5760006040517f96c6fd1e000000000000000000000000000000000000000000000000000000008152600401611a539190612ac1565b60405180910390fd5b611a6882600083611da3565b5050565b6000600860008373ffffffffffffffffffffffffffffffffffffffff1673ffffffffffffffffffffffffffffffffffffffff168152602001908152602001600020549050919050565b6060611aeb60067f000000000000000000000000000000000000000000000000000000000000000061205e90919063ffffffff16565b905090565b6060611b2660077f000000000000000000000000000000000000000000000000000000000000000061205e90919063ffffffff16565b905090565b6000600860008373ffffffffffffffffffffffffffffffffffffffff1673ffffffffffffffffffffffffffffffffffffffff1681526020019081526020016000206000815480929190600101919050559050919050565b6000611b95611b8f61186d565b8361210e565b9050919050565b600080600080611bae8888888861214f565b925092509250611bbe8282612243565b829350505050949350505050565b600073ffffffffffffffffffffffffffffffffffffffff168473ffffffffffffffffffffffffffffffffffffffff1603611c3e5760006040517fe602df05000000000000000000000000000000000000000000000000000000008152600401611c359190612ac1565b60405180910390fd5b600073ffffffffffffffffffffffffffffffffffffffff168373ffffffffffffffffffffffffffffffffffffffff1603611cb05760006040517f94280d62000000000000000000000000000000000000000000000000000000008152600401611ca79190612ac1565b60405180910390fd5b81600160008673ffffffffffffffffffffffffffffffffffffffff1673ffffffffffffffffffffffffffffffffffffffff16815260200190815260200160002060008573ffffffffffffffffffffffffffffffffffffffff1673ffffffffffffffffffffffffffffffffffffffff168152602001908152602001600020819055508015611d9d578273ffffffffffffffffffffffffffffffffffffffff168473ffffffffffffffffffffffffffffffffffffffff167f8c5be1e5ebec7d5bd14f71427d1e84f3dd0314c0f7b2291e5b200ac8c7c3b92584604051611d94919061275e565b60405180910390a35b50505050565b600073ffffffffffffffffffffffffffffffffffffffff168373ffffffffffffffffffffffffffffffffffffffff1603611df5578060026000828254611de99190612f97565b92505081905550611ec8565b60008060008573ffffffffffffffffffffffffffffffffffffffff1673ffffffffffffffffffffffffffffffffffffffff16815260200190815260200160002054905081811015611e81578381836040517fe450d38c000000000000000000000000000000000000000000000000000000008152600401611e78939291906133cd565b60405180910390fd5b8181036000808673ffffffffffffffffffffffffffffffffffffffff1673ffffffffffffffffffffffffffffffffffffffff16815260200190815260200160002081905550505b600073ffffffffffffffffffffffffffffffffffffffff168273ffffffffffffffffffffffffffffffffffffffff1603611f115780600260008282540392505081905550611f5e565b806000808473ffffffffffffffffffffffffffffffffffffffff1673ffffffffffffffffffffffffffffffffffffffff168152602001908152602001600020600082825401925050819055505b8173ffffffffffffffffffffffffffffffffffffffff168373ffffffffffffffffffffffffffffffffffffffff167fddf252ad1be2c89b69c2b068fc378daa952ba7f163c4a11628f55a4df523b3ef83604051611fbb919061275e565b60405180910390a3505050565b60007f8b73c3c69bb8fe3d512ecc4cf759cc79239f7b179b0ffacaa9a75d522b39400f7f00000000000000000000000000000000000000000000000000000000000000007f00000000000000000000000000000000000000000000000000000000000000004630604051602001612043959493929190613404565b60405160208183030381529060405280519060200120905090565b606060ff60001b831461207b57612074836123a7565b9050612108565b81805461208790612c45565b80601f01602080910402602001604051908101604052809291908181526020018280546120b390612c45565b80156121005780601f106120d557610100808354040283529160200191612100565b820191906000526020600020905b8154815290600101906020018083116120e357829003601f168201915b505050505090505b92915050565b60006040517f190100000000000000000000000000000000000000000000000000000000000081528360028201528260228201526042812091505092915050565b60008060007f7fffffffffffffffffffffffffffffff5d576e7357a4501ddfe92f46681b20a08460001c111561218f576000600385925092509250612239565b6000600188888888604051600081526020016040526040516121b49493929190613457565b6020604051602081039080840390855afa1580156121d6573d6000803e3d6000fd5b505050602060405103519050600073ffffffffffffffffffffffffffffffffffffffff168173ffffffffffffffffffffffffffffffffffffffff160361222a57600060016000801b93509350935050612239565b8060008060001b935093509350505b9450945094915050565b60006003811115612257576122566126a2565b5b82600381111561226a576122696126a2565b5b03156123a35760016003811115612284576122836126a2565b5b826003811115612297576122966126a2565b5b036122ce576040517ff645eedf00000000000000000000000000000000000000000000000000000000815260040160405180910390fd5b600260038111156122e2576122e16126a2565b5b8260038111156122f5576122f46126a2565b5b0361233a578060001c6040517ffce698f7000000000000000000000000000000000000000000000000000000008152600401612331919061275e565b60405180910390fd5b60038081111561234d5761234c6126a2565b5b8260038111156123605761235f6126a2565b5b036123a257806040517fd78bce0c000000000000000000000000000000000000000000000000000000008152600401612399919061281c565b60405180910390fd5b5b5050565b606060006123b48361241b565b90506000602067ffffffffffffffff8111156123d3576123d2613282565b5b6040519080825280601f01601f1916602001820160405280156124055781602001600182028036833780820191505090505b5090508181528360208201528092505050919050565b60008060ff8360001c169050601f811115612462576040517fb3512b0c00000000000000000000000000000000000000000000000000000000815260040160405180910390fd5b80915050919050565b6040518060800160405280600081526020016000815260200160006002811115612498576124976126a2565b5b8152602001600081525090565b600081519050919050565b600082825260208201905092915050565b60005b838110156124df5780820151818401526020810190506124c4565b60008484015250505050565b6000601f19601f8301169050919050565b6000612507826124a5565b61251181856124b0565b93506125218185602086016124c1565b61252a816124eb565b840191505092915050565b6000602082019050818103600083015261254f81846124fc565b905092915050565b600080fd5b600073ffffffffffffffffffffffffffffffffffffffff82169050919050565b60006125878261255c565b9050919050565b6125978161257c565b81146125a257600080fd5b50565b6000813590506125b48161258e565b92915050565b6000819050919050565b6125cd816125ba565b81146125d857600080fd5b50565b6000813590506125ea816125c4565b92915050565b6000806040838503121561260757612606612557565b5b6000612615858286016125a5565b9250506020612626858286016125db565b9150509250929050565b60008115159050919050565b61264581612630565b82525050565b6000602082019050612660600083018461263c565b92915050565b60006020828403121561267c5761267b612557565b5b600061268a848285016125a5565b91505092915050565b61269c816125ba565b82525050565b7f4e487b7100000000000000000000000000000000000000000000000000000000600052602160045260246000fd5b600381106126e2576126e16126a2565b5b50565b60008190506126f3826126d1565b919050565b6000612703826126e5565b9050919050565b612713816126f8565b82525050565b600060808201905061272e6000830187612693565b61273b6020830186612693565b612748604083018561270a565b6127556060830184612693565b95945050505050565b60006020820190506127736000830184612693565b92915050565b60008060006060848603121561279257612791612557565b5b60006127a0868287016125a5565b93505060206127b1868287016125a5565b92505060406127c2868287016125db565b9150509250925092565b600060ff82169050919050565b6127e2816127cc565b82525050565b60006020820190506127fd60008301846127d9565b92915050565b6000819050919050565b61281681612803565b82525050565b6000602082019050612831600083018461280d565b92915050565b6003811061284457600080fd5b50565b60008135905061285681612837565b92915050565b60006020828403121561287257612871612557565b5b600061288084828501612847565b91505092915050565b60006020828403121561289f5761289e612557565b5b60006128ad848285016125db565b91505092915050565b6128bf816125ba565b82525050565b6128ce816126f8565b82525050565b6080820160008201516128ea60008501826128b6565b5060208201516128fd60208501826128b6565b50604082015161291060408501826128c5565b50606082015161292360608501826128b6565b50505050565b600060808201905061293e60008301846128d4565b92915050565b60007fff0000000000000000000000000000000000000000000000000000000000000082169050919050565b61297981612944565b82525050565b6129888161257c565b82525050565b600081519050919050565b600082825260208201905092915050565b6000819050602082019050919050565b60006129c683836128b6565b60208301905092915050565b6000602082019050919050565b60006129ea8261298e565b6129f48185612999565b93506129ff836129aa565b8060005b83811015612a30578151612a1788826129ba565b9750612a22836129d2565b925050600181019050612a03565b5085935050505092915050565b600060e082019050612a52600083018a612970565b8181036020830152612a6481896124fc565b90508181036040830152612a7881886124fc565b9050612a876060830187612693565b612a94608083018661297f565b612aa160a083018561280d565b81810360c0830152612ab381846129df565b905098975050505050505050565b6000602082019050612ad6600083018461297f565b92915050565b612ae5816127cc565b8114612af057600080fd5b50565b600081359050612b0281612adc565b92915050565b612b1181612803565b8114612b1c57600080fd5b50565b600081359050612b2e81612b08565b92915050565b600080600080600080600060e0888a031215612b5357612b52612557565b5b6000612b618a828b016125a5565b9750506020612b728a828b016125a5565b9650506040612b838a828b016125db565b9550506060612b948a828b016125db565b9450506080612ba58a828b01612af3565b93505060a0612bb68a828b01612b1f565b92505060c0612bc78a828b01612b1f565b91505092959891949750929550565b60008060408385031215612bed57612bec612557565b5b6000612bfb858286016125a5565b9250506020612c0c858286016125a5565b9150509250929050565b7f4e487b7100000000000000000000000000000000000000000000000000000000600052602260045260246000fd5b60006002820490506001821680612c5d57607f821691505b602082108103612c7057612c6f612c16565b5b50919050565b7f546865206661756365742069732063757272656e746c79207061757365642e00600082015250565b6000612cac601f836124b0565b9150612cb782612c76565b602082019050919050565b60006020820190508181036000830152612cdb81612c9f565b9050919050565b7f4e487b7100000000000000000000000000000000000000000000000000000000600052601160045260246000fd5b6000612d1c826125ba565b9150612d27836125ba565b9250828203905081811115612d3f57612d3e612ce2565b5b92915050565b60008160011c9050919050565b6000808291508390505b6001851115612d9c57808604811115612d7857612d77612ce2565b5b6001851615612d875780820291505b8081029050612d9585612d45565b9450612d5c565b94509492505050565b600082612db55760019050612e71565b81612dc35760009050612e71565b8160018114612dd95760028114612de357612e12565b6001915050612e71565b60ff841115612df557612df4612ce2565b5b8360020a915084821115612e0c57612e0b612ce2565b5b50612e71565b5060208310610133831016604e8410600b8410161715612e475782820a905083811115612e4257612e41612ce2565b5b612e71565b612e548484846001612d52565b92509050818404811115612e6b57612e6a612ce2565b5b81810290505b9392505050565b6000612e83826125ba565b9150612e8e836127cc565b9250612ebb7fffffffffffffffffffffffffffffffffffffffffffffffffffffffffffffffff8484612da5565b905092915050565b6000612ece826125ba565b9150612ed9836125ba565b9250828202612ee7816125ba565b91508282048414831517612efe57612efd612ce2565b5b5092915050565b7f696e76616c696420636f6e646974696f6e2063616e2774206d696e742030207460008201527f6f6b656e732c204e6f20746f6b656e73206c6566740000000000000000000000602082015250565b6000612f616035836124b0565b9150612f6c82612f05565b604082019050919050565b60006020820190508181036000830152612f9081612f54565b9050919050565b6000612fa2826125ba565b9150612fad836125ba565b9250828201905080821115612fc557612fc4612ce2565b5b92915050565b7f4f76657220746865204c696d6974206f6620746f74616c20737570706c79206360008201527f6170000000000000000000000000000000000000000000000000000000000000602082015250565b60006130276022836124b0565b915061303282612fcb565b604082019050919050565b600060208201905081810360008301526130568161301a565b9050919050565b7f596f752063616e2774206d696e6520616e7920746f6b656e7320666f72206e6f60008201527f7700000000000000000000000000000000000000000000000000000000000000602082015250565b60006130b96021836124b0565b91506130c48261305d565b604082019050919050565b600060208201905081810360008301526130e8816130ac565b9050919050565b60006040820190506131046000830185612693565b6131116020830184612693565b9392505050565b7f4c696d697420666f72207468652075736572206d617820616d6f756e7420657860008201527f6365656465640000000000000000000000000000000000000000000000000000602082015250565b60006131746026836124b0565b915061317f82613118565b604082019050919050565b600060208201905081810360008301526131a381613167565b9050919050565b7f4e6f7420656e6f75676820746f6b656e7320746f206275726e00000000000000600082015250565b60006131e06019836124b0565b91506131eb826131aa565b602082019050919050565b6000602082019050818103600083015261320f816131d3565b9050919050565b7f546573742d6f6e6c792066756e6374696f6e0000000000000000000000000000600082015250565b600061324c6012836124b0565b915061325782613216565b602082019050919050565b6000602082019050818103600083015261327b8161323f565b9050919050565b7f4e487b7100000000000000000000000000000000000000000000000000000000600052604160045260246000fd5b7f6f6e6520706572736f6e204d41582063616e2774206265206d6f72652074686160008201527f6e2074686520746f74616c20737570706c79206361706974616c000000000000602082015250565b600061330d603a836124b0565b9150613318826132b1565b604082019050919050565b6000602082019050818103600083015261333c81613300565b9050919050565b600060c082019050613358600083018961280d565b613365602083018861297f565b613372604083018761297f565b61337f6060830186612693565b61338c6080830185612693565b61339960a0830184612693565b979650505050505050565b60006040820190506133b9600083018561297f565b6133c6602083018461297f565b9392505050565b60006060820190506133e2600083018661297f565b6133ef6020830185612693565b6133fc6040830184612693565b949350505050565b600060a082019050613419600083018861280d565b613426602083018761280d565b613433604083018661280d565b6134406060830185612693565b61344d608083018461297f565b9695505050505050565b600060808201905061346c600083018761280d565b61347960208301866127d9565b613486604083018561280d565b613493606083018461280d565b9594505050505056fea264697066735822122014908b2f821ecc0c6875c660d86d80260c3512e69634e1876ffa3090a15ab10464736f6c634300081c0033",
  "linkReferences": {},
  "deployedLinkReferences": {}
}